{
  "_format": "hh-sol-artifact-1",
  "contractName": "Voting",
  "sourceName": "contracts/Voting.sol",
  "abi": [
    {
      "inputs": [],
      "stateMutability": "nonpayable",
      "type": "constructor"
    },
    {
      "anonymous": false,
      "inputs": [
        {
          "indexed": false,
          "internalType": "address",
          "name": "_address",
          "type": "address"
        }
      ],
      "name": "ArbiterAdded",
      "type": "event"
    },
    {
      "anonymous": false,
      "inputs": [
        {
          "indexed": false,
          "internalType": "address",
          "name": "_address",
          "type": "address"
        }
      ],
      "name": "ArbiterRemoved",
      "type": "event"
    },
    {
      "anonymous": false,
      "inputs": [
        {
          "indexed": false,
          "internalType": "string",
          "name": "candidateName",
          "type": "string"
        },
        {
          "indexed": false,
          "internalType": "string",
          "name": "candidateSymbol",
          "type": "string"
        }
      ],
      "name": "CandidateAdded",
      "type": "event"
    },
    {
      "anonymous": false,
      "inputs": [
        {
          "indexed": false,
          "internalType": "address",
          "name": "_address",
          "type": "address"
        }
      ],
      "name": "Voted",
      "type": "event"
    },
    {
      "inputs": [
        {
          "internalType": "address",
          "name": "_address",
          "type": "address"
        }
      ],
      "name": "addAndApproveArbiter",
      "outputs": [],
      "stateMutability": "nonpayable",
      "type": "function"
    },
    {
      "inputs": [
        {
          "internalType": "address",
          "name": "_address",
          "type": "address"
        },
        {
          "internalType": "string",
          "name": "_name",
          "type": "string"
        },
        {
          "internalType": "string",
          "name": "_symbol",
          "type": "string"
        }
      ],
      "name": "addCandidateProposal",
      "outputs": [],
      "stateMutability": "nonpayable",
      "type": "function"
    },
    {
      "inputs": [
        {
          "internalType": "uint256",
          "name": "_id",
          "type": "uint256"
        }
      ],
      "name": "approveCandidate",
      "outputs": [],
      "stateMutability": "nonpayable",
      "type": "function"
    },
    {
      "inputs": [],
      "name": "arbiterCount",
      "outputs": [
        {
          "internalType": "uint256",
          "name": "",
          "type": "uint256"
        }
      ],
      "stateMutability": "view",
      "type": "function"
    },
    {
      "inputs": [
        {
          "internalType": "uint256",
          "name": "",
          "type": "uint256"
        }
      ],
      "name": "candidates",
      "outputs": [
        {
          "internalType": "bool",
          "name": "approved",
          "type": "bool"
        },
        {
          "internalType": "uint256",
          "name": "approveCount",
          "type": "uint256"
        },
        {
          "internalType": "address",
          "name": "candidate",
          "type": "address"
        },
        {
          "internalType": "string",
          "name": "name",
          "type": "string"
        },
        {
          "internalType": "string",
          "name": "symbol",
          "type": "string"
        },
        {
          "internalType": "uint256",
          "name": "votes",
          "type": "uint256"
        }
      ],
      "stateMutability": "view",
      "type": "function"
    },
    {
      "inputs": [],
      "name": "candidatesCount",
      "outputs": [
        {
          "internalType": "uint256",
          "name": "",
          "type": "uint256"
        }
      ],
      "stateMutability": "view",
      "type": "function"
    },
    {
      "inputs": [
        {
          "internalType": "address",
          "name": "_address",
          "type": "address"
        }
      ],
      "name": "deleteArbiter",
      "outputs": [],
      "stateMutability": "nonpayable",
      "type": "function"
    },
    {
      "inputs": [],
      "name": "getArbiterCount",
      "outputs": [
        {
          "internalType": "uint256",
          "name": "",
          "type": "uint256"
        }
      ],
      "stateMutability": "view",
      "type": "function"
    },
    {
      "inputs": [
        {
          "internalType": "address",
          "name": "_address",
          "type": "address"
        }
      ],
      "name": "getArbiterStatus",
      "outputs": [
        {
          "components": [
            {
              "internalType": "address",
              "name": "arbiterAddress",
              "type": "address"
            },
            {
              "internalType": "uint256",
              "name": "approveCount",
              "type": "uint256"
            },
            {
              "internalType": "bool",
              "name": "approved",
              "type": "bool"
            }
          ],
          "internalType": "struct Voting.Arbiter",
          "name": "",
          "type": "tuple"
        }
      ],
      "stateMutability": "view",
      "type": "function"
    },
    {
      "inputs": [
        {
          "internalType": "uint256",
          "name": "_candidate",
          "type": "uint256"
        }
      ],
      "name": "getCandidate",
      "outputs": [
        {
          "components": [
            {
              "internalType": "bool",
              "name": "approved",
              "type": "bool"
            },
            {
              "internalType": "uint256",
              "name": "approveCount",
              "type": "uint256"
            },
            {
              "internalType": "address",
              "name": "candidate",
              "type": "address"
            },
            {
              "internalType": "string",
              "name": "name",
              "type": "string"
            },
            {
              "internalType": "string",
              "name": "symbol",
              "type": "string"
            },
            {
              "internalType": "uint256",
              "name": "votes",
              "type": "uint256"
            }
          ],
          "internalType": "struct Voting.Candidate",
          "name": "",
          "type": "tuple"
        }
      ],
      "stateMutability": "view",
      "type": "function"
    },
    {
      "inputs": [],
      "name": "getCandidateCount",
      "outputs": [
        {
          "internalType": "uint256",
          "name": "",
          "type": "uint256"
        }
      ],
      "stateMutability": "view",
      "type": "function"
    },
    {
      "inputs": [
        {
          "internalType": "address",
          "name": "",
          "type": "address"
        }
      ],
      "name": "isArbiter",
      "outputs": [
        {
          "internalType": "address",
          "name": "arbiterAddress",
          "type": "address"
        },
        {
          "internalType": "uint256",
          "name": "approveCount",
          "type": "uint256"
        },
        {
          "internalType": "bool",
          "name": "approved",
          "type": "bool"
        }
      ],
      "stateMutability": "view",
      "type": "function"
    },
    {
      "inputs": [
        {
          "internalType": "address",
          "name": "",
          "type": "address"
        }
      ],
      "name": "removeArbiter",
      "outputs": [
        {
          "internalType": "uint256",
          "name": "",
          "type": "uint256"
        }
      ],
      "stateMutability": "view",
      "type": "function"
    },
    {
      "inputs": [
        {
          "internalType": "uint256",
          "name": "_id",
          "type": "uint256"
        }
      ],
      "name": "vote",
      "outputs": [],
      "stateMutability": "nonpayable",
      "type": "function"
    },
    {
      "inputs": [
        {
          "internalType": "address",
          "name": "",
          "type": "address"
        }
      ],
      "name": "voted",
      "outputs": [
        {
          "internalType": "bool",
          "name": "",
          "type": "bool"
        }
      ],
      "stateMutability": "view",
      "type": "function"
    }
  ],
  "bytecode": "0x6080604052600060015560006003553480156200001b57600080fd5b5060016000803373ffffffffffffffffffffffffffffffffffffffff1673ffffffffffffffffffffffffffffffffffffffff16815260200190815260200160002060020160006101000a81548160ff021916908315150217905550600160008154809291906200008b90620000d6565b91905055504260088190555062000123565b7f4e487b7100000000000000000000000000000000000000000000000000000000600052601160045260246000fd5b6000819050919050565b6000620000e382620000cc565b91507fffffffffffffffffffffffffffffffffffffffffffffffffffffffffffffffff82036200011857620001176200009d565b5b600182019050919050565b61275c80620001336000396000f3fe608060405234801561001057600080fd5b50600436106100f55760003560e01c80636995604611610097578063c15fd28211610066578063c15fd2821461029d578063e60849d5146102bb578063f5bbc6d5146102d7578063fd42773a14610309576100f5565b8063699560461461021757806385bc94c0146102335780638debbca414610251578063aec2ccae1461026d576100f5565b806330a56347116100d357806330a56347146101645780633477ee2e146101825780633487e08c146101b757806335b8e820146101e7576100f5565b80630121b93f146100fa5780632d35a8a2146101165780632dabe8e614610134575b600080fd5b610114600480360381019061010f9190611985565b610325565b005b61011e61055a565b60405161012b91906119c1565b60405180910390f35b61014e60048036038101906101499190611a3a565b610560565b60405161015b9190611ae2565b60405180910390f35b61016c610633565b60405161017991906119c1565b60405180910390f35b61019c60048036038101906101979190611985565b61063d565b6040516101ae96959493929190611bab565b60405180910390f35b6101d160048036038101906101cc9190611a3a565b6107b6565b6040516101de91906119c1565b60405180910390f35b61020160048036038101906101fc9190611985565b6107ce565b60405161020e9190611cf4565b60405180910390f35b610231600480360381019061022c9190611985565b6109a4565b005b61023b610c84565b60405161024891906119c1565b60405180910390f35b61026b60048036038101906102669190611a3a565b610c8e565b005b61028760048036038101906102829190611a3a565b611033565b6040516102949190611d16565b60405180910390f35b6102a5611053565b6040516102b291906119c1565b60405180910390f35b6102d560048036038101906102d09190611d96565b611059565b005b6102f160048036038101906102ec9190611a3a565b611469565b60405161030093929190611e2b565b60405180910390f35b610323600480360381019061031e9190611a3a565b6114c0565b005b6078426103329190611e91565b6008541115610376576040517f08c379a000000000000000000000000000000000000000000000000000000000815260040161036d90611f11565b60405180910390fd5b6002600082815260200190815260200160002060000160009054906101000a900460ff166103d9576040517f08c379a00000000000000000000000000000000000000000000000000000000081526004016103d090611f7d565b60405180910390fd5b600760003373ffffffffffffffffffffffffffffffffffffffff1673ffffffffffffffffffffffffffffffffffffffff16815260200190815260200160002060009054906101000a900460ff1615610466576040517f08c379a000000000000000000000000000000000000000000000000000000000815260040161045d90611fe9565b60405180910390fd5b60026000828152602001908152602001600020600501600081548092919061048d90612009565b91905055506001600760003373ffffffffffffffffffffffffffffffffffffffff1673ffffffffffffffffffffffffffffffffffffffff16815260200190815260200160002060006101000a81548160ff0219169083151502179055507f16a9aa39af49f169911e977347975198c503525f7240d6892a626f0227642fce6002600083815260200190815260200160002060020160009054906101000a900473ffffffffffffffffffffffffffffffffffffffff1660405161054f9190612051565b60405180910390a150565b60035481565b6105686118be565b6000808373ffffffffffffffffffffffffffffffffffffffff1673ffffffffffffffffffffffffffffffffffffffff1681526020019081526020016000206040518060600160405290816000820160009054906101000a900473ffffffffffffffffffffffffffffffffffffffff1673ffffffffffffffffffffffffffffffffffffffff1673ffffffffffffffffffffffffffffffffffffffff168152602001600182015481526020016002820160009054906101000a900460ff1615151515815250509050919050565b6000600354905090565b60026020528060005260406000206000915090508060000160009054906101000a900460ff16908060010154908060020160009054906101000a900473ffffffffffffffffffffffffffffffffffffffff169080600301805461069f9061209b565b80601f01602080910402602001604051908101604052809291908181526020018280546106cb9061209b565b80156107185780601f106106ed57610100808354040283529160200191610718565b820191906000526020600020905b8154815290600101906020018083116106fb57829003601f168201915b50505050509080600401805461072d9061209b565b80601f01602080910402602001604051908101604052809291908181526020018280546107599061209b565b80156107a65780601f1061077b576101008083540402835291602001916107a6565b820191906000526020600020905b81548152906001019060200180831161078957829003601f168201915b5050505050908060050154905086565b60066020528060005260406000206000915090505481565b6107d66118f7565b600260008381526020019081526020016000206040518060c00160405290816000820160009054906101000a900460ff16151515158152602001600182015481526020016002820160009054906101000a900473ffffffffffffffffffffffffffffffffffffffff1673ffffffffffffffffffffffffffffffffffffffff1673ffffffffffffffffffffffffffffffffffffffff16815260200160038201805461087f9061209b565b80601f01602080910402602001604051908101604052809291908181526020018280546108ab9061209b565b80156108f85780601f106108cd576101008083540402835291602001916108f8565b820191906000526020600020905b8154815290600101906020018083116108db57829003601f168201915b505050505081526020016004820180546109119061209b565b80601f016020809104026020016040519081016040528092919081815260200182805461093d9061209b565b801561098a5780601f1061095f5761010080835404028352916020019161098a565b820191906000526020600020905b81548152906001019060200180831161096d57829003601f168201915b505050505081526020016005820154815250509050919050565b6078426109b19190611e91565b60085411156109f5576040517f08c379a00000000000000000000000000000000000000000000000000000000081526004016109ec90611f11565b60405180910390fd5b6000803373ffffffffffffffffffffffffffffffffffffffff1673ffffffffffffffffffffffffffffffffffffffff16815260200190815260200160002060020160009054906101000a900460ff16610a83576040517f08c379a0000000000000000000000000000000000000000000000000000000008152600401610a7a90612118565b60405180910390fd5b6004600082815260200190815260200160002060003373ffffffffffffffffffffffffffffffffffffffff1673ffffffffffffffffffffffffffffffffffffffff16815260200190815260200160002060009054906101000a900460ff1615610b21576040517f08c379a0000000000000000000000000000000000000000000000000000000008152600401610b1890612184565b60405180910390fd5b60016004600083815260200190815260200160002060003373ffffffffffffffffffffffffffffffffffffffff1673ffffffffffffffffffffffffffffffffffffffff16815260200190815260200160002060006101000a81548160ff021916908315150217905550600260008281526020019081526020016000206001016000815480929190610bb190612009565b919050555060036002600154610bc791906121a4565b610bd19190612215565b60026000838152602001908152602001600020600101541115610c815760016002600083815260200190815260200160002060000160006101000a81548160ff0219169083151502179055507f6184463fde61a3e60869da6c5a223163f4b7548f805e17f865da2e8d3828d3376002600083815260200190815260200160002060030160026000848152602001908152602001600020600401604051610c789291906122df565b60405180910390a15b50565b6000600154905090565b607842610c9b9190611e91565b6008541115610cdf576040517f08c379a0000000000000000000000000000000000000000000000000000000008152600401610cd690611f11565b60405180910390fd5b6000803373ffffffffffffffffffffffffffffffffffffffff1673ffffffffffffffffffffffffffffffffffffffff16815260200190815260200160002060020160009054906101000a900460ff16610d6d576040517f08c379a0000000000000000000000000000000000000000000000000000000008152600401610d6490612362565b60405180910390fd5b600560003373ffffffffffffffffffffffffffffffffffffffff1673ffffffffffffffffffffffffffffffffffffffff16815260200190815260200160002060008273ffffffffffffffffffffffffffffffffffffffff1673ffffffffffffffffffffffffffffffffffffffff16815260200190815260200160002060009054906101000a900460ff1615610e37576040517f08c379a0000000000000000000000000000000000000000000000000000000008152600401610e2e90612184565b60405180910390fd5b6000808273ffffffffffffffffffffffffffffffffffffffff1673ffffffffffffffffffffffffffffffffffffffff1681526020019081526020016000206001016000815480929190610e8990612009565b91905055506001600560003373ffffffffffffffffffffffffffffffffffffffff1673ffffffffffffffffffffffffffffffffffffffff16815260200190815260200160002060008373ffffffffffffffffffffffffffffffffffffffff1673ffffffffffffffffffffffffffffffffffffffff16815260200190815260200160002060006101000a81548160ff02191690831515021790555060036002600154610f3491906121a4565b610f3e9190612215565b6000808373ffffffffffffffffffffffffffffffffffffffff1673ffffffffffffffffffffffffffffffffffffffff1681526020019081526020016000206001015411156110305760016000808373ffffffffffffffffffffffffffffffffffffffff1673ffffffffffffffffffffffffffffffffffffffff16815260200190815260200160002060020160006101000a81548160ff02191690831515021790555060016000815480929190610ff390612009565b91905055507fafdeb899cc4d21829cdb25c0d01f24b146c093672211b514abc195da5ddda89c816040516110279190612051565b60405180910390a15b50565b60076020528060005260406000206000915054906101000a900460ff1681565b60015481565b6078426110669190611e91565b60085411156110aa576040517f08c379a00000000000000000000000000000000000000000000000000000000081526004016110a190611f11565b60405180910390fd5b6000803373ffffffffffffffffffffffffffffffffffffffff1673ffffffffffffffffffffffffffffffffffffffff16815260200190815260200160002060020160009054906101000a900460ff16611138576040517f08c379a000000000000000000000000000000000000000000000000000000000815260040161112f90612362565b60405180910390fd5b60046000600354815260200190815260200160002060003373ffffffffffffffffffffffffffffffffffffffff1673ffffffffffffffffffffffffffffffffffffffff16815260200190815260200160002060009054906101000a900460ff16156111d8576040517f08c379a00000000000000000000000000000000000000000000000000000000081526004016111cf90612184565b60405180910390fd5b600160046000600354815260200190815260200160002060003373ffffffffffffffffffffffffffffffffffffffff1673ffffffffffffffffffffffffffffffffffffffff16815260200190815260200160002060006101000a81548160ff0219169083151502179055506040518060c00160405280600015158152602001600181526020018673ffffffffffffffffffffffffffffffffffffffff16815260200185858080601f016020809104026020016040519081016040528093929190818152602001838380828437600081840152601f19601f82011690508083019250505050505050815260200183838080601f016020809104026020016040519081016040528093929190818152602001838380828437600081840152601f19601f820116905080830192505050505050508152602001600081525060026000600354815260200190815260200160002060008201518160000160006101000a81548160ff0219169083151502179055506020820151816001015560408201518160020160006101000a81548173ffffffffffffffffffffffffffffffffffffffff021916908373ffffffffffffffffffffffffffffffffffffffff16021790555060608201518160030190816113ae9190612548565b5060808201518160040190816113c49190612548565b5060a08201518160050155905050600180540361144a57600160026000600354815260200190815260200160002060000160006101000a81548160ff0219169083151502179055507f6184463fde61a3e60869da6c5a223163f4b7548f805e17f865da2e8d3828d337848484846040516114419493929190612656565b60405180910390a15b6003600081548092919061145d90612009565b91905055505050505050565b60006020528060005260406000206000915090508060000160009054906101000a900473ffffffffffffffffffffffffffffffffffffffff16908060010154908060020160009054906101000a900460ff16905083565b6078426114cd9190611e91565b6008541115611511576040517f08c379a000000000000000000000000000000000000000000000000000000000815260040161150890611f11565b60405180910390fd5b6000808273ffffffffffffffffffffffffffffffffffffffff1673ffffffffffffffffffffffffffffffffffffffff16815260200190815260200160002060020160009054906101000a900460ff1661159f576040517f08c379a0000000000000000000000000000000000000000000000000000000008152600401611596906126dd565b60405180910390fd5b6000803373ffffffffffffffffffffffffffffffffffffffff1673ffffffffffffffffffffffffffffffffffffffff16815260200190815260200160002060020160009054906101000a900460ff1661162d576040517f08c379a000000000000000000000000000000000000000000000000000000000815260040161162490612362565b60405180910390fd5b600660008273ffffffffffffffffffffffffffffffffffffffff1673ffffffffffffffffffffffffffffffffffffffff168152602001908152602001600020600081548092919061167d90612009565b91905055506000600560003373ffffffffffffffffffffffffffffffffffffffff1673ffffffffffffffffffffffffffffffffffffffff16815260200190815260200160002060008373ffffffffffffffffffffffffffffffffffffffff1673ffffffffffffffffffffffffffffffffffffffff16815260200190815260200160002060006101000a81548160ff0219169083151502179055506003600260015461172891906121a4565b6117329190612215565b600660008373ffffffffffffffffffffffffffffffffffffffff1673ffffffffffffffffffffffffffffffffffffffff16815260200190815260200160002054118061178057506002600154145b156118bb5760008060008373ffffffffffffffffffffffffffffffffffffffff1673ffffffffffffffffffffffffffffffffffffffff16815260200190815260200160002060020160006101000a81548160ff02191690831515021790555060008060008373ffffffffffffffffffffffffffffffffffffffff1673ffffffffffffffffffffffffffffffffffffffff1681526020019081526020016000206001018190555060016000815480929190611839906126fd565b91905055506000600660008373ffffffffffffffffffffffffffffffffffffffff1673ffffffffffffffffffffffffffffffffffffffff168152602001908152602001600020819055507fb7a0f68489d6e103758c5896f7f700d18e1e9213039ef12daf1c81a88b1ce671816040516118b29190612051565b60405180910390a15b50565b6040518060600160405280600073ffffffffffffffffffffffffffffffffffffffff168152602001600081526020016000151581525090565b6040518060c0016040528060001515815260200160008152602001600073ffffffffffffffffffffffffffffffffffffffff1681526020016060815260200160608152602001600081525090565b600080fd5b600080fd5b6000819050919050565b6119628161194f565b811461196d57600080fd5b50565b60008135905061197f81611959565b92915050565b60006020828403121561199b5761199a611945565b5b60006119a984828501611970565b91505092915050565b6119bb8161194f565b82525050565b60006020820190506119d660008301846119b2565b92915050565b600073ffffffffffffffffffffffffffffffffffffffff82169050919050565b6000611a07826119dc565b9050919050565b611a17816119fc565b8114611a2257600080fd5b50565b600081359050611a3481611a0e565b92915050565b600060208284031215611a5057611a4f611945565b5b6000611a5e84828501611a25565b91505092915050565b611a70816119fc565b82525050565b611a7f8161194f565b82525050565b60008115159050919050565b611a9a81611a85565b82525050565b606082016000820151611ab66000850182611a67565b506020820151611ac96020850182611a76565b506040820151611adc6040850182611a91565b50505050565b6000606082019050611af76000830184611aa0565b92915050565b611b0681611a85565b82525050565b611b15816119fc565b82525050565b600081519050919050565b600082825260208201905092915050565b60005b83811015611b55578082015181840152602081019050611b3a565b60008484015250505050565b6000601f19601f8301169050919050565b6000611b7d82611b1b565b611b878185611b26565b9350611b97818560208601611b37565b611ba081611b61565b840191505092915050565b600060c082019050611bc06000830189611afd565b611bcd60208301886119b2565b611bda6040830187611b0c565b8181036060830152611bec8186611b72565b90508181036080830152611c008185611b72565b9050611c0f60a08301846119b2565b979650505050505050565b600082825260208201905092915050565b6000611c3682611b1b565b611c408185611c1a565b9350611c50818560208601611b37565b611c5981611b61565b840191505092915050565b600060c083016000830151611c7c6000860182611a91565b506020830151611c8f6020860182611a76565b506040830151611ca26040860182611a67565b5060608301518482036060860152611cba8282611c2b565b91505060808301518482036080860152611cd48282611c2b565b91505060a0830151611ce960a0860182611a76565b508091505092915050565b60006020820190508181036000830152611d0e8184611c64565b905092915050565b6000602082019050611d2b6000830184611afd565b92915050565b600080fd5b600080fd5b600080fd5b60008083601f840112611d5657611d55611d31565b5b8235905067ffffffffffffffff811115611d7357611d72611d36565b5b602083019150836001820283011115611d8f57611d8e611d3b565b5b9250929050565b600080600080600060608688031215611db257611db1611945565b5b6000611dc088828901611a25565b955050602086013567ffffffffffffffff811115611de157611de061194a565b5b611ded88828901611d40565b9450945050604086013567ffffffffffffffff811115611e1057611e0f61194a565b5b611e1c88828901611d40565b92509250509295509295909350565b6000606082019050611e406000830186611b0c565b611e4d60208301856119b2565b611e5a6040830184611afd565b949350505050565b7f4e487b7100000000000000000000000000000000000000000000000000000000600052601160045260246000fd5b6000611e9c8261194f565b9150611ea78361194f565b9250828201905080821115611ebf57611ebe611e62565b5b92915050565b7f566f74696e6720656e6465640000000000000000000000000000000000000000600082015250565b6000611efb600c83611b26565b9150611f0682611ec5565b602082019050919050565b60006020820190508181036000830152611f2a81611eee565b9050919050565b7f6e6f7420617070726f7665640000000000000000000000000000000000000000600082015250565b6000611f67600c83611b26565b9150611f7282611f31565b602082019050919050565b60006020820190508181036000830152611f9681611f5a565b9050919050565b7f596f7527766520766f7465640000000000000000000000000000000000000000600082015250565b6000611fd3600c83611b26565b9150611fde82611f9d565b602082019050919050565b6000602082019050818103600083015261200281611fc6565b9050919050565b60006120148261194f565b91507fffffffffffffffffffffffffffffffffffffffffffffffffffffffffffffffff820361204657612045611e62565b5b600182019050919050565b60006020820190506120666000830184611b0c565b92915050565b7f4e487b7100000000000000000000000000000000000000000000000000000000600052602260045260246000fd5b600060028204905060018216806120b357607f821691505b6020821081036120c6576120c561206c565b5b50919050565b7f6e6f7420616e2041726269746572000000000000000000000000000000000000600082015250565b6000612102600e83611b26565b915061210d826120cc565b602082019050919050565b60006020820190508181036000830152612131816120f5565b9050919050565b7f416c726561647920566f74656400000000000000000000000000000000000000600082015250565b600061216e600d83611b26565b915061217982612138565b602082019050919050565b6000602082019050818103600083015261219d81612161565b9050919050565b60006121af8261194f565b91506121ba8361194f565b92508282026121c88161194f565b915082820484148315176121df576121de611e62565b5b5092915050565b7f4e487b7100000000000000000000000000000000000000000000000000000000600052601260045260246000fd5b60006122208261194f565b915061222b8361194f565b92508261223b5761223a6121e6565b5b828204905092915050565b60008190508160005260206000209050919050565b600081546122688161209b565b6122728186611b26565b9450600182166000811461228d57600181146122a3576122d6565b60ff1983168652811515602002860193506122d6565b6122ac85612246565b60005b838110156122ce578154818901526001820191506020810190506122af565b808801955050505b50505092915050565b600060408201905081810360008301526122f9818561225b565b9050818103602083015261230d818461225b565b90509392505050565b7f596f75277265206e6f7420616e20417262697465720000000000000000000000600082015250565b600061234c601583611b26565b915061235782612316565b602082019050919050565b6000602082019050818103600083015261237b8161233f565b9050919050565b7f4e487b7100000000000000000000000000000000000000000000000000000000600052604160045260246000fd5b60006020601f8301049050919050565b600082821b905092915050565b6000600883026123fe7fffffffffffffffffffffffffffffffffffffffffffffffffffffffffffffffff826123c1565b61240886836123c1565b95508019841693508086168417925050509392505050565b6000819050919050565b600061244561244061243b8461194f565b612420565b61194f565b9050919050565b6000819050919050565b61245f8361242a565b61247361246b8261244c565b8484546123ce565b825550505050565b600090565b61248861247b565b612493818484612456565b505050565b5b818110156124b7576124ac600082612480565b600181019050612499565b5050565b601f8211156124fc576124cd81612246565b6124d6846123b1565b810160208510156124e5578190505b6124f96124f1856123b1565b830182612498565b50505b505050565b600082821c905092915050565b600061251f60001984600802612501565b1980831691505092915050565b6000612538838361250e565b9150826002028217905092915050565b61255182611b1b565b67ffffffffffffffff81111561256a57612569612382565b5b612574825461209b565b61257f8282856124bb565b600060209050601f8311600181146125b257600084156125a0578287015190505b6125aa858261252c565b865550612612565b601f1984166125c086612246565b60005b828110156125e8578489015182556001820191506020850194506020810190506125c3565b868310156126055784890151612601601f89168261250e565b8355505b6001600288020188555050505b505050505050565b82818337600083830152505050565b60006126358385611b26565b935061264283858461261a565b61264b83611b61565b840190509392505050565b60006040820190508181036000830152612671818688612629565b90508181036020830152612686818486612629565b905095945050505050565b7f546861742773206e6f7420616e20417262697465720000000000000000000000600082015250565b60006126c7601583611b26565b91506126d282612691565b602082019050919050565b600060208201905081810360008301526126f6816126ba565b9050919050565b60006127088261194f565b91506000820361271b5761271a611e62565b5b60018203905091905056fea264697066735822122090195da8a0a91cc36aad2a5e7696e191ec79f00ecdd5e2a5a3e0835f9d8e696364736f6c63430008130033",
  "linkReferences": {},
  "deployedLinkReferences": {}
}